:020000040800F2
:101000000050002021120008271200082B120008AF
:101010007512000879120008C112000800000000D3
:10102000000000000000000000000000091300089C
:101030000D13000800000000111300085D1C0008DB
:1010400025130008251300082513000825130008A0
:101050002513000825130008251300082513000890
:101060002513000825130008251300082513000880
:101070002513000825130008251300082513000870
:101080002513000825130008251300082513000860
:101090002513000825130008251300082513000850
:1010A0002513000825130008251300082513000840
:1010B0002513000825130008251300082513000830
:1010C0002513000825130008251300082513000820
:1010D0002513000825130008251300082513000810
:1010E0002513000825130008251300080000000040
:1010F00000000000000000000000000000000000F0
:1011000000000000000000005FF808F100B583B0A7
:1011100000F0A0F9304B314A1360314A1360314B73
:10112000314A32498B4204D21168196004330432C7
:10113000F7E72A4B1A682E4B9A4200D0FEE7284B5D
:101140001A682C4B9A42F9D1234B2B4A13602B4A35
:1011500013602B4B02E000221A600433294A9342A9
:10116000F9D3254B1B6813B9244B1B6803B1FEE769
:1011700000F07CF9694601A800F00EF9224C234BDF
:10118000E41AA4100025AC4214DC214C214BE41AD3
:10119000A4100025AC4213DC0099019800F0D0FDAA
:1011A00005461D4C1D4BE41AA410002C0EDC2846ED
:1011B00000F0CEF8154B53F8253098470135E2E79B
:1011C000144B53F8253098470135E3E7013C134BA6
:1011D00053F824309847E8E7BABADECA0000002086
:1011E00084000020000000209028000888000020D3
:1011F0007856341232547698880000202801002056
:10120000880000202C010020501300085013000813
:101210005013000850130008501300085013000822
:1012200008B5FFF773FF00BEFEE71EF0040F0CBF0A
:10123000EFF30880EFF309807146374A10472DE934
:10124000F04182B004468846084B5E6B9F6B9D6AF6
:10125000074800F0A9F8CDF800803B463246294601
:10126000204600F007F900BEFEE700BF00ED00E0F9
:101270002428000800BEFEE71EF0040F0CBFEFF3A9
:101280000880EFF309807146244A10472DE9F041A8
:1012900082B004468846084B5E6B9F6B9D6A074888
:1012A00000F082F8CDF800803B46324629462046C1
:1012B00000F0E0F800BEFEE700ED00E03428000892
:1012C0001EF0040F0CBFEFF30880EFF309807146A6
:1012D000134A10472DE9F04182B004468846084B76
:1012E0005E6B9F6B9D6A074800F05EF8CDF800804A
:1012F0003B4632462946204600F0BCF800BEFEE7D9
:1013000000ED00E04028000800BEFEE700BEFEE75A
:1013100000BEFEE7704700003F1200088D12000873
:08132000D512000800BEFEE733
:10132800902800080000002088000020902800086D
:101338000000000000000000880000202C010020B0
:0813480000000000000000009D
:10135000FEE7000008B503460C4A12685AB10B4A72
:101360001068033323F003030344094A934206D869
:10137000064A136008BD054A06491160EFE700F010
:1013800093FD0C2303604FF0FF30F3E78C00002047
:10139000004C00202C01002001230360014B0B6056
:1013A000704700BF040000200FB400B583B004AB49
:1013B00053F8042B01938021064800F0A7FD002874
:1013C00003DD0146034800F040F803B05DF804EB8C
:1013D00004B070479400002000228A4233D24FF0BC
:1013E0006043D3F8803E13F0010F2AD04FF06043E2
:1013F000D3F8003E13F0010F23D010B40DE04FF0EE
:101400006043D3F8803E13F0010F17D04FF06043D4
:10141000D3F8003E13F0010F10D04FF060431B686B
:10142000002BFAD090F90030DBB24FF0604423700B
:10143000013201308A42E2D3084600E0104610BC77
:101440007047104670470846704708B5FFF7C4FF5D
:1014500008BD000008B500F0EDF8024A024B9A60A2
:1014600008BD00BF0010000800ED00E008B500F066
:1014700009F908BDF8B504460D4617461E4627482B
:10148000FFF792FF21682648FFF78EFF6168254825
:10149000FFF78AFFA1682448FFF786FFE168234829
:1014A000FFF782FF21692248FFF77EFF616921482B
:1014B000FFF77AFFA1692048FFF776FFE1691F482F
:1014C000FFF772FF1E48FFF76FFF29461D48FFF721
:1014D0006BFF1D4CE16A1D48FFF766FF216B1C483E
:1014E000FFF762FFE16B1B48FFF75EFF15F0800F0F
:1014F0000AD115F4004F0CD11748FFF755FF069994
:101500001648FFF751FFF8BD39461548FFF74CFF65
:10151000EFE731461348FFF747FFEDE708270008DC
:10152000182700082827000838270008482700083F
:10153000582700086827000878270008882700082F
:1015400098270008A427000800ED00E0B427000851
:10155000C4270008D4270008042800080C28000825
:10156000E4270008F427000882B0002301930093C9
:101570002C4A136843F4803313602A4B1B6803F42E
:1015800000330093019B01330193009B1BB9019B26
:10159000B3F5A06FF1D1234B1B6813F4003F06D0C5
:1015A00001230093009B012B04D002B0704700235D
:1015B0000093F7E71C4B1A6842F010021A601A6891
:1015C00022F003021A601A6842F002021A60A3F5C0
:1015D00080535A685A605A685A605A6842F4806266
:1015E0005A605A6822F47C125A605A6842F4E8122F
:1015F0005A601A6842F080721A600A4B1B6813F036
:10160000007FFAD0074B5A6822F003025A605A68EA
:1016100042F002025A60034B5B6803F00C03082B94
:10162000F9D1C2E7001002400020024008B5FFF7E0
:101630009BFF08BD08B5104B1A6842F001021A6002
:1016400059680E4A0A405A601A6822F0847222F4DD
:1016500080321A601A6822F480221A605A6822F4D2
:10166000FE025A604FF41F029A60FFF7DFFF044B3F
:101670004FF000629A6008BD001002400000FFF8C1
:1016800000ED00E01F4B5B6803F00C03042B15D04A
:10169000082B17D01BB11C4B1C4A1A6002E01A4BD6
:1016A0001A4A1A60174B5B68C3F30313184AD35CDA
:1016B000DAB215490B68D3400B607047124B134ADE
:1016C0001A60EFE70F4A53685268C3F3834302334B
:1016D00012F4803F0AD00B4A526812F4003F0BD03C
:1016E0000C4A02FB03F3084A1360DBE7094A02FBDA
:1016F00003F3054A1360D5E7044A02FB03F3024AE9
:101700001360CFE7001002401C00002000127A0096
:101710000C00002000093D00F0B407290BD88C0014
:10172000E4B2A51CEDB201286DD098B1022800F0FA
:10173000C680F0BC7047A1F10805EDB2072D06D8B0
:1017400001F13805AD00ECB2A51CEDB2EBE70025C8
:101750002C46E8E7072928D8704806680F27A740D5
:1017600026EA07060660066802FA04F434430460B9
:1017700004682A4603FA05F52C430460022B09D0BD
:10178000032BD6D165480368022101FA02F21A43FD
:101790000260CEE70346026815430560C268012077
:1017A00000FA01F11143D960C3E7A1F10800C0B20A
:1017B0000728BED8594846680F27A74026EA0706DB
:1017C0004660466802FA04F43443446044682A469A
:1017D00003FA05F52C434460022B09D0032BA8D152
:1017E0004E484368022101FA02F21A434260A0E720
:1017F0000346426815434560C268012000FA01F1C2
:101800001143D96095E7072929D8454806680F276D
:10181000A74026EA07060660066802FA04F4344385
:10182000046004682A4603FA05F52C430460022B81
:101830000AD0032B7FF47DAF39480368022101FAF7
:1018400002F21A43026074E703460268154305601A
:10185000C268012000FA01F11143D96069E7A1F1E2
:101860000800C0B207283FF664AF2D4846680F272E
:10187000A74026EA07064660466802FA04F43443A5
:10188000446044682A4603FA05F52C434460022B61
:101890000AD0032B7FF44DAF21484368022101FA9F
:1018A00002F21A43426044E703464268154345602A
:1018B000C268012000FA01F11143D96039E7A1F1B2
:1018C0000D00C0B202283FF634AF164846680F2715
:1018D000A74026EA07064660466802FA04F4344345
:1018E0004460446803FA05F214434460022B0AD0B2
:1018F000032B7FF41EAF0B494B68022202FA05F658
:101900001E434E6015E70346406802435A60DA689A
:10191000012000FA01F11143D9600AE700080140F3
:10192000000C014000100140012818D018B1022815
:1019300029D0022070474AB1012A3AD121480369CF
:1019400002FA01F119430161002070471D48436903
:10195000012202FA01F119434161002070474AB1A6
:10196000012A28D11848036902FA01F119430161DB
:101970000020704714484369012202FA01F119431B
:101980004161002070470C2917D94AB1012A16D1AC
:101990000E48036902FA01F1194301610020704702
:1019A0000A484369012202FA01F11943416100200A
:1019B00070470220704702207047012070470220C4
:1019C000704700BF00080140000C014000100140BA
:1019D00001280DD018B1022813D002207047114BF6
:1019E0009B6823FA01F101F001011170002070479A
:1019F0000D4B9B6823FA01F101F0010111700020E9
:101A00007047A1F10D03DBB2022B08D8074B9B688E
:101A100023FA01F101F0010111700020704700204C
:101A2000704700BF00080140000C01400010014059
:101A3000012805D0112811D0192811D00020704795
:101A40000022094B1B68C34013F0010F0AD1013279
:101A50004CF250339A42F4D1002070470022F0E754
:101A60000022EEE70120704700100240022807D84C
:101A7000044B5A6822F003025A605A6810435860B7
:101A8000704700BF00100240022801D8012900D988
:101A90007047012812D010B102281ED0704739B10A
:101AA0000129F5D1144A136843F00103136070470C
:101AB000114A136823F001031360704739B10129FB
:101AC000E6D10D4A136843F48033136070470A4A25
:101AD000136823F480331360704739B10129D7D1DB
:101AE000054A136843F0807313607047024A136815
:101AF00023F080731360CBE7001002400F2815D845
:101B0000072913D8072A11D810B4094C636823F4A5
:101B10007F5323F0300363606368120242EA0010CF
:101B200040EAC1211943616010BC7047704700BF93
:101B30000010024008B501210020FFF7A5FF012099
:101B4000FFF776FF00B908BD0020FFF78FFF0021E7
:101B50000120FFF799FF00210220FFF795FF0022E7
:101B600011461046FFF7CAFFEDE70000012816D026
:101B700010B1022826D0704742B1012A34D11B4847
:101B8000436902FA01F119434161704717484369FB
:101B9000012202FA01F123EA01014161704742B1D9
:101BA000012A21D11148C36902FA01F11943C16127
:101BB00070470E48C369012202FA01F123EA0101CC
:101BC000C161704742B1012A0ED10848836902FA07
:101BD00001F119438161704704488369012202FAC7
:101BE00001F123EA01018161704700BF001002404A
:101BF0000349CA6802F4E062024B1343CB60FEE77C
:101C000000ED00E00400FA05074B1A6842F00202FA
:101C10001A601A6842F001021A601A6822F004027F
:101C20001A600020704700BF10E000E00A4B5860C7
:101C300000229A601A6842F001021A60064B1B6883
:101C400013F4803FFAD0044B1A6822F001021A60A4
:101C500000225A609A60704710E000E008B50A4B15
:101C60001B785BB9094B1A6822F001021A601A68E6
:101C700022F002021A6000229A605A60044B1B682C
:101C80009847024B1B6808BD1401002010E000E0DB
:101C900018010020104BDA6822F48052DA60DA680A
:101CA00022F48062DA601A6922F480521A611A6999
:101CB00022F400521A61DA6842F00802DA60DA6847
:101CC00042F00402DA6040F241329A60DA6842F48B
:101CD0000052DA60704700BF00380140064B586080
:101CE000054B1B6813F0400FFAD0034A136823F02A
:101CF00040031360704700BF003801400CE0084A01
:101D00005360074B1B6813F0400FFAD0044A136866
:101D100023F04003136001300378002BEFD17047AC
:101D200000380140054B1B6813F0200F04D0034B13
:101D30005B68037001207047002070470038014045
:101D400000B585B0FFF7F6FE012202210846FFF735
:101D50000DFF01220E210220FFF708FF01230022C0
:101D60000A211046FFF7D8FC022301220921002096
:101D7000FFF7D2FC0223002211461046FFF7CCFCED
:101D80000023012211461846FFF7C6FC0023022259
:101D900011461846FFF7C0FC00230222072118460F
:101DA000FFF7BAFC002201211046FFF7BDFD01221A
:101DB00002210020FFF7B8FD012207210020FFF7D4
:101DC000B3FDFFF767FFFFF71FFF00238DF80F300C
:101DD0008DF80E308DF80D3000930193ADF808307A
:101DE0000DF10F0200210846FFF7F2FD9DF80D00EE
:101DF0006844FFF797FF01281DD09DF800304E2B57
:101E000020D09DF80330312B3AD0422B3CD09DF8A6
:101E10000D30DBB2082B02D900238DF80D309DF870
:101E20000F30002BDCD19DF80E30DBB2012BD7D167
:101E3000FFF7DEFED4E79DF80D300133DBB28DF8FD
:101E40000D30DAE79DF80130452BDAD19DF80230EC
:101E5000572BD6D19DF80D30DBB2032BD1D84FF4E0
:101E60006170FFF7E3FE0F48FFF748FF6420FFF7BC
:101E7000DDFE9DF80F003030C0B2FFF72FFFC0E746
:101E800001228DF80E20C0E700238DF80D3030239D
:101E90008DF800308DF801308DF802308DF8033068
:101EA000B5E700BF50280008014B1868704700BF15
:101EB0002000002030B5141E05469BB0184605DAF8
:101EC0008B234FF0FF302B601BB030BD4FF40273FB
:101ED000ADF80C300CBF234604F1FF330293059399
:101EE0004FF6FF7300910491ADF80E3002461E9B31
:101EF0006946284600F072F8431CBCBF8B232B6058
:101F0000002CE1D00022009B1A70DDE707B500939A
:101F100013460A46014603480068FFF7CBFF03B0AB
:101F20005DF804FB200000202DE9F0478E68824612
:101F30009E420C469046994637D88A8912F4906F93
:101F400031D00223256809696F1A656905EB4505DB
:101F500095FBF3F509F101033B449D4238BF1D4653
:101F6000530530D5294600F035FB064650B90C2301
:101F70004FF0FF30CAF80030A38943F04003A3813B
:101F8000BDE8F0873A46216900F0B4FAA38923F44A
:101F9000906343F08003A38126613E4426604E4651
:101FA0006561ED1BA5604E4500D94E46324641465F
:101FB000206800F0AAFAA36800209B1BA360236896
:101FC0001E442660DCE72A4600F05EFB0646002839
:101FD000E2D12169504600F0B1FAC8E72DE9F04F8F
:101FE0009DB003938B8980461D060C4616460FD57F
:101FF0000B696BB9402100F0EDFA2060206128B92F
:102000000C23C8F800304FF0FF30C7E04023636175
:102010000023099320238DF8293030234FF0010B42
:102020008DF82A3037463D4615F8013B0BB1252B7C
:102030003ED1B7EB060A0BD0534632462146404606
:10204000FFF772FF013000F0A480099B534409930D
:102050003B78002B00F09D8000234FF0FF32CDE94C
:102060000523049307938DF853301A932F460522C6
:1020700017F8011B4F4800F02FFA049BD0B9D9067E
:1020800044BF20228DF853201A0744BF2B228DF81D
:1020900053202A782A2A15D02F4600200A25079A8D
:1020A000394611F8013B303B092B4DD9B8B10FE04F
:1020B0002F46B8E73F4A3D46801A0BFA00F0184316
:1020C0000490D3E7039A111D12680391002A01DBE3
:1020D000079204E0524243F00203079204933B78D4
:1020E0002E2B0CD17B782A2B33D1039B02371A1D60
:1020F0001B680392002BB8BF4FF0FF3305932E4DA2
:1021000003223978284600F0E7F938B14023401B14
:1021100003FA00F0049B0137034304933978062245
:1021200026487E1C8DF8281000F0D6F9002838D0FB
:10213000234B13BB039B073323F00703083303939D
:10214000099B4B4409936DE705FB023201200F46C2
:10215000A6E700230A25194601370593384610F8EB
:10216000012B303A092A03D9002BC8D00591C6E7C4
:1021700005FB012101230746F0E703AB009322464C
:10218000104B04A94046AFF30080B0F1FF3F8146F9
:10219000D6D1A3895B063FF536AF09981DB0BDE8DF
:1021A000F08F03AB00932246064B04A9404600F093
:1021B00081F8EAE75C280008622800086628000821
:1021C00000000000291F00082DE9F04791461F4636
:1021D0008A680B6906469342B8BF1346C9F80030B7
:1021E00091F843200C46DDF8208012B10133C9F884
:1021F00000302368990642BFD9F800300233C9F88D
:102200000030256815F0060507D104F1190AE368C6
:10221000D9F800209B1AAB4229DC94F8433022689D
:10222000003318BF012392062ED404F1430239462D
:102230003046C047013021D02368E56803F006032B
:10224000042B18BF0025D9F800204FF0000908BF63
:10225000AD1AA368226908BF25EAE5759342C4BF99
:102260009B1AED181A344D451AD1002008E00123BD
:10227000524639463046C047013003D14FF0FF3057
:10228000BDE8F0870135C2E73020E11881F843004E
:102290005A1C94F845102244023382F84310C4E7D4
:1022A0000123224639463046C0470130E6D009F1C5
:1022B0000109D8E72DE9F04301F1430C0C46097EF2
:1022C00085B06E291746064698460C9A00F0B380F2
:1022D00022D8632936D00AD8002900F0B9805829BD
:1022E00000F0838004F1420584F8421032E0642952
:1022F00001D06929F6D120681368050603F10401AD
:102300002AD51B681160002B03DA2D225B4284F86A
:1023100043206F480A2239E0732900F09D8008D8D5
:102320006F2920D07029DDD1236843F0200323607A
:1023300003E0752917D07829D4D17823654884F82B
:10234000453055E0136804F14205191D1B68116002
:1023500084F8423001238CE01B6810F0400F1160BC
:1023600018BF1BB2CFE713682568181D1060280638
:1023700001D51B6802E06806FBD51B886F2914BFD6
:102380000A2208225248002184F843106568002D73
:10239000A560C0F29580216821F004012160002B26
:1023A0003DD1002D40F08E806546082A0BD1236870
:1023B000DB0708D5236962689A42DEBF302305F83F
:1023C000013C05F1FF35ACEB05032361CDF800803E
:1023D0003B4603AA21463046FFF7F6FE01304DD1B9
:1023E0004FF0FF3005B0BDE8F083394884F8451060
:1023F000136821681D1D1B6815600A060BD5CA07E6
:1024000044BF41F0200121601BB9226822F0200264
:1024100022601022B7E74D0648BF9BB2EFE7654642
:10242000B3FBF2F102FB1133C35C05F8013D0B462F
:102430000029F5D1B9E713682568181D6169106096
:1024400028061B6801D5196002E06A06FBD51980D1
:10245000002365462361B9E71368191D11601D68E3
:1024600062680021284600F037F808B1401B606020
:1024700063682361002384F84330A7E723692A4671
:1024800039463046C0470130AAD023689B0713D491
:10249000E068039B9842B8BF1846A3E701234A4669
:1024A00039463046C04701309AD00135E368039A77
:1024B0009B1AAB42F2DCEBE7002504F11909F5E7C2
:1024C000002BACD1037804F1420584F842306CE76C
:1024D0006D2800087E28000810B5C9B20244904259
:1024E000034601D1002303E01C7801308C42F6D171
:1024F000184610BD10B5431E0A44914200D110BDCC
:1025000011F8014B03F8014FF7E7884210B501EBD2
:10251000020307D8421E99420AD011F8014B02F873
:10252000014FF8E78342F5D98118D21AD34200D17E
:1025300010BD13F8014D01F8014DF7E738B5054618
:10254000002943D051F8043C0C1F002BB8BFE418FD
:1025500000F0D0F81E4A1368104633B96360146067
:102560002846BDE8384000F0C6B8A3420BD9216820
:102570006218934201BF1A685B6852182260636058
:102580000460EDE713465A680AB1A242FAD9196805
:102590005818A0420BD12068014458188242196093
:1025A000DED110685268014419605A60D8E702D938
:1025B0000C232B60D4E7206821188A4201BF1168E0
:1025C00052680918216062605C60C9E738BD00BFCD
:1025D0001C01002070B5CD1C25F0030508350C2D1D
:1025E00038BF0C25002D064601DBA94203D90C2378
:1025F0003360002070BD00F07DF8214A1468214648
:1026000091B9204C23681BB9304600F063F8206074
:102610002946304600F05EF8431C24D10C23304696
:10262000336000F068F8E4E70B685B1B18D40B2BF1
:102630000FD90B60CC18CD50304600F05CF804F197
:102640000B00231D20F00700C31AD3D05A42E250DA
:10265000D0E74B688C4216BF636013600C46EBE713
:102660000C464968CCE7C41C24F00304A04205D002
:10267000211A304600F02EF80130CFD02560DBE77C
:102680001C01002020010020F8B5074614460E4624
:1026900021B9BDE8F8401146FFF79CBF22B9FFF70A
:1026A0004DFF25462846F8BD00F026F8A0420FD27F
:1026B00021463846FFF78EFF05460028F2D0314606
:1026C0002246FFF717FF31463846FFF737FFE9E7A5
:1026D0003546E7E738B50023054C05460846236034
:1026E000FEF738FE431C02D1236803B12B6038BDCE
:1026F000240100207047704751F8043C181F002B3C
:10270000BCBF0B58C0187047537461636B2066726E
:10271000616D653A0A000000205230203D202025DE
:102720003038580A00000000205231203D2020257A
:102730003038580A00000000205232203D20202569
:102740003038580A00000000205233203D20202558
:102750003038580A0000000020523132203D202538
:102760003038580A00000000204C52203D2020251F
:102770003038580A00000000205043203D2020251A
:102780003038580A0000000020505352203D2025C8
:102790003038580A000000004653522F4641523A42
:1027A0000A0000002043465352203D2020253038A7
:1027B000580A00002048465352203D20202530383A
:1027C000580A00002044465352203D20202530382E
:1027D000580A00002041465352203D202025303821
:1027E000580A0000204D4D464152203D20253038EA
:1027F000580A00002042464152203D202025303812
:10280000580A00004D6973630A000000204C522FE3
:102810004558435F52455455524E3D202530385857
:102820000A0000005B486172644661756C745D0A61
:10283000000000005B4275734661756C745D0A00B0
:102840005B55736167654661756C745D0A000000D5
:1028500053776974636820310A000000232D302B00
:102860002000686C4C006566674546470030313291
:1028700033343536373839414243444546003031E8
:0F28800032333435363738396162636465660048
:102890007856341290000020000000000000000074
:1028A00000000000010203040607080900A24A0410
:1028B00024000020000000000000000000000000D4
:1028C0000000000000000000000000000000000008
:1028D00000000000000000000000000000000000F8
:1028E00000000000000000000000000000000000E8
:1028F00000000000000000000000000000000000D8
:1029000000000000000000000000000000000000C7
:0829100000000000325476982B
:040000050800110DD1
:00000001FF
